:020000040000FA
:100000000C9462000C948A000C948A000C948A0070
:100010000C948A000C948A000C948A000C948A0038
:100020000C948A000C948A000C948A000C948A0028
:100030000C948A000C948A000C948A000C948A0018
:100040000C94D1020C948A000C949F020C947902B7
:100050000C948A000C948A000C948A000C948A00F8
:100060000C948A000C948A000000000024002700F1
:100070002A0000000000250028002B0000000000DE
:1000800023002600290004040404040404040202DA
:100090000202020203030303030301020408102007
:1000A0004080010204081020010204081020000012
:1000B0000008000201000003040700000000000027
:1000C0000000F20411241FBECFEFD8E0DEBFCDBF89
:1000D00011E0A0E0B1E0EEE4FAE002C005900D927C
:1000E000AE33B107D9F721E0AEE3B1E001C01D9214
:1000F000A03FB207E1F710E0C2E6D0E004C02197CC
:10010000FE010E941F05C136D107C9F70E941B03DB
:100110000C9425050C940000AF92BF92CF92DF9211
:10012000EF92FF920F931F93CF93DF936C017B01AC
:100130008B01040F151FEB015E01AE18BF08C0173D
:10014000D10759F06991D601ED91FC910190F081B0
:10015000E02DC6010995892B79F7C501DF91CF9173
:100160001F910F91FF90EF90DF90CF90BF90AF90D5
:100170000895FC01538D448D252F30E0842F90E0AD
:10018000821B930B541710F0CF9608950197089592
:10019000FC01918D828D981761F0A28DAE0FBF2F5B
:1001A000B11D5D968C91928D9F5F9F73928F90E0B1
:1001B00008958FEF9FEF0895FC01918D828D981720
:1001C00031F0828DE80FF11D858D90E008958FEF5D
:1001D0009FEF0895FC01918D228D892F90E0805C26
:1001E0009F4F821B91098F739927089583E591E0B2
:1001F0000E94EA0021E0892B09F420E0822F089573
:1002000080E090E0892B29F00E94F60081110C9487
:1002100000000895FC01A48DA80FB92FB11DA35AA9
:10022000BF4F2C91848D90E001968F739927848F16
:10023000A689B7892C93A089B1898C918370806439
:100240008C93938D848D981306C00288F389E02DDA
:1002500080818F7D80830895EF92FF920F931F938B
:10026000CF93DF93EC0181E0888F9B8D8C8D981369
:100270001AC0E889F989808185FF15C09FB7F89475
:10028000EE89FF896083E889F989808183708064C1
:1002900080839FBF81E090E0DF91CF911F910F910C
:1002A000FF90EF900895F62E0B8D10E00F5F1F4F1B
:1002B0000F731127E02E8C8D8E110CC00FB607FC2A
:1002C000FACFE889F989808185FFF5CFCE010E94B8
:1002D0000A01F1CFEB8DEC0FFD2FF11DE35AFF4F1B
:1002E000F0829FB7F8940B8FEA89FB898081806246
:1002F000CFCFCF93DF93EC01888D8823B9F0AA8903
:10030000BB89E889F9898C9185FD03C0808186FDD0
:100310000DC00FB607FCF7CF8C9185FFF2CF80811F
:1003200085FFEDCFCE010E940A01E9CFDF91CF9189
:100330000895833081F028F4813099F08230A9F05B
:1003400008958730A9F08830C9F08430B1F48091E5
:1003500080008F7D03C0809180008F778093800024
:10036000089584B58F7784BD089584B58F7DFBCFC4
:100370008091B0008F778093B00008958091B00095
:100380008F7DF9CFCF93DF93282F30E0F901E2552D
:10039000FF4F8491F901E656FF4FD491F901EA57D6
:1003A000FF4FC491CC23A1F081110E949901EC2F41
:1003B000F0E0EE0FFF1FE458FF4FA591B491EC91D0
:1003C000ED2381E090E009F480E0DF91CF91089582
:1003D00080E090E0FACF1F93CF93DF93282F30E097
:1003E000F901E255FF4F8491F901E656FF4FD49190
:1003F000F901EA57FF4FC491CC23A9F0162F8111C0
:100400000E949901EC2FF0E0EE0FFF1FEE58FF4F16
:10041000A591B4918FB7F894EC91111108C0D095C3
:10042000DE23DC938FBFDF91CF911F910895DE2BE8
:10043000F8CFCF93DF9390E0FC01E656FF4F249175
:100440008A579F4FFC0184918823D1F090E0880F58
:10045000991FFC01E859FF4FA591B491FC01EE589A
:10046000FF4FC591D491623071F49FB7F8943C91DD
:10047000822F809583238C93E8812E2B28839FBF26
:10048000DF91CF9108958FB7F894EC912E2B2C9398
:100490008FBFF6CF83E591E00E94EA001816190697
:1004A0004CF483E591E00E94C80080934B0181E009
:1004B00080934C010895FC0101900020E9F73197E9
:1004C000AF01481B590BBC0183E591E00C948C00F3
:1004D00086E191E00E945B0260914B0183E591E02F
:1004E0000E942C0188E291E00E945B0210924C0174
:1004F00008951F920F920FB60F9211242F933F93DE
:100500004F935F936F937F938F939F93AF93BF931B
:10051000EF93FF9383E591E00E940A01FF91EF9131
:10052000BF91AF919F918F917F916F915F914F910B
:100530003F912F910F900FBE0F901F9018951F9213
:100540000F920FB60F9211242F938F939F93EF93D7
:10055000FF93E0916301F09164018081E091690172
:10056000F0916A0182FD1BC0908180916C018F5FC8
:100570008F7320916D01821741F0E0916C01F0E0E2
:10058000ED5AFE4F958F80936C01FF91EF919F91F3
:100590008F912F910F900FBE0F901F901895808113
:1005A000F4CF1F920F920FB60F9211242F933F9307
:1005B0008F939F93AF93BF93809143019091440198
:1005C000A0914501B09146013091420123E0230FF3
:1005D0002D3758F50196A11DB11D2093420180933E
:1005E000430190934401A0934501B093460180914B
:1005F0003E0190913F01A0914001B09141010196CF
:10060000A11DB11D80933E0190933F01A093400135
:10061000B0934101BF91AF919F918F913F912F91E5
:100620000F900FBE0F901F90189526E8230F02968B
:10063000A11DB11DD2CF789484B5826084BD84B5EC
:10064000816084BD85B5826085BD85B5816085BDCD
:1006500080916E00816080936E0010928100809185
:10066000810082608093810080918100816080930D
:100670008100809180008160809380008091B10032
:1006800084608093B1008091B00081608093B0005D
:1006900080917A00846080937A0080917A008260F1
:1006A00080937A0080917A00816080937A008091B3
:1006B0007A00806880937A001092C10062E082E044
:1006C0000E94190262E083E00E94190261E08DE05D
:1006D0000E94190261E086E00E94190261E085E053
:1006E0000E94190261E084E00E94190260E086E045
:1006F0000E94EB01E0916301F091640182E080834C
:10070000E0915F01F09160011082E0916101F09150
:1007100062018FEC808310926B01E0916701F09190
:10072000680186E08083E0916501F0916601808137
:1007300080618083E0916501F0916601808188602D
:100740008083E0916501F0916601808180688083FB
:10075000E0916501F091660180818F7D80838BE25D
:1007600091E00E945B0288E291E00E945B0260914E
:1007700049018DE00E94EB01CBE9DFE080E0882EAB
:1007800080E0982ECC24C394D12C83E00E94C20137
:100790007C0182E00E94C2018C0180910201909153
:1007A0000301E816F90699F02FB7F89480914301F8
:1007B00090914401A0914501B09146012FBF8093D3
:1007C0004F0190935001A0935101B09352012FB764
:1007D000F8948091430190914401A0914501B0911A
:1007E00046012FBF40914F0150915001609151013E
:1007F00070915201841B950BA60BB70BC397A105F3
:10080000B10508F448C080914D0190914E01E81661
:10081000F90609F440C0F0924E01E0924D0180913A
:100820004D0190914E01892B91F50E944A028091D1
:100830004C01882381F080914B01833761F40E9441
:1008400068020E944A0280914C018823D1F3809172
:100850004B018136B1F7D0924A01C092490161E063
:1008600084E00E94EB0182E00E94C2015C0161E031
:1008700085E00E94EB01CE010197F1F760E085E091
:100880000E94EB01CE010197F1F7AB2841F660E041
:1008900084E00E94EB018091000190910101081712
:1008A000190799F02FB7F894809143019091440172
:1008B000A0914501B09146012FBF80934F019093C5
:1008C0005001A0935101B09352012FB7F894809139
:1008D000430190914401A0914501B09146012FBF81
:1008E00040914F015091500160915101709152011E
:1008F000841B950BA60BB70BC397A105B10508F494
:1009000058C080914701909148010817190709F4D0
:1009100050C0109348010093470180914701909186
:100920004801892B09F041C00E944A0280914C0184
:100930008823D9F080914B018337B9F40E94680273
:100940000E944A0280914C018823D1F380914B018F
:10095000813609F076CF0E944A0280914C018823AB
:10096000D1F380914B01813659F710924A011092D0
:10097000490183E00E94C2015C0160E084E00E94C2
:10098000EB0182E00E94C20161E085E00E94EB0180
:10099000CE010197F1F760E085E00E94EB01CE0106
:1009A0000197F1F7AB2809F0B8CF61E084E00E942D
:1009B000EB01609149018DE00E94EB01F09203018F
:1009C000E09202011093010100930001811491044F
:1009D00009F4DBCE0E94F600882309F4D6CE0E94EB
:1009E0000000D3CEE3E5F1E01382128288EE93E0BB
:1009F000A0E0B0E084839583A683B78388E091E08C
:100A00009183808385EC90E09587848784EC90E0E7
:100A10009787868780EC90E0918B808B81EC90E0CB
:100A2000938B828B82EC90E0958B848B86EC90E0AC
:100A3000978B868B118E128E138E148E0895EE0F67
:100A4000FF1F0590F491E02D0994F894FFCF010069
:100A50000100000000002C018C00B9007901EA00BF
:100A6000C800DC0054686973206A75737420696E6D
:100A7000202E2E2E20000D0A003C41726475696EF6
:0C0A80006F2069732072656164793E008C
:107E0000112484B714BE81FFF0D085E080938100F7
:107E100082E08093C00088E18093C10086E0809377
:107E2000C20080E18093C4008EE0C9D0259A86E02C
:107E300020E33CEF91E0309385002093840096BBD3
:107E4000B09BFECF1D9AA8958150A9F7CC24DD24C4
:107E500088248394B5E0AB2EA1E19A2EF3E0BF2EE7
:107E6000A2D0813461F49FD0082FAFD0023811F036
:107E7000013811F484E001C083E08DD089C08234E0
:107E800011F484E103C0853419F485E0A6D080C0E4
:107E9000853579F488D0E82EFF2485D0082F10E0AE
:107EA000102F00270E291F29000F111F8ED06801E7
:107EB0006FC0863521F484E090D080E0DECF843638
:107EC00009F040C070D06FD0082F6DD080E0C81688
:107ED00080E7D80618F4F601B7BEE895C0E0D1E017
:107EE00062D089930C17E1F7F0E0CF16F0E7DF06D8
:107EF00018F0F601B7BEE89568D007B600FCFDCFD4
:107F0000A601A0E0B1E02C9130E011968C91119780
:107F100090E0982F8827822B932B1296FA010C0160
:107F200087BEE89511244E5F5F4FF1E0A038BF0790
:107F300051F7F601A7BEE89507B600FCFDCF97BE46
:107F4000E89526C08437B1F42ED02DD0F82E2BD052
:107F50003CD0F601EF2C8F010F5F1F4F84911BD097
:107F6000EA94F801C1F70894C11CD11CFA94CF0C13
:107F7000D11C0EC0853739F428D08EE10CD085E9AC
:107F80000AD08FE07ACF813511F488E018D01DD067
:107F900080E101D065CF982F8091C00085FFFCCF94
:107FA0009093C60008958091C00087FFFCCF809118
:107FB000C00084FD01C0A8958091C6000895E0E648
:107FC000F0E098E1908380830895EDDF803219F02E
:107FD00088E0F5DFFFCF84E1DECF1F93182FE3DFCA
:107FE0001150E9F7F2DF1F91089580E0E8DFEE27F6
:047FF000FF270994CA
:027FFE00040479
:00000001FF
