:020000040000FA
:100000000C9462000C948A000C948A000C948A0070
:100010000C948A000C948A000C948A000C948A0038
:100020000C948A000C948A000C948A000C948A0028
:100030000C948A000C948A000C948A000C948A0018
:100040000C94DF020C948A000C94AD020C9487028D
:100050000C948A000C948A000C948A000C948A00F8
:100060000C948A000C948A000000000024002700F1
:100070002A0000000000250028002B0000000000DE
:1000800023002600290004040404040404040202DA
:100090000202020203030303030301020408102007
:1000A0004080010204081020010204081020000012
:1000B0000008000201000003040700000000000027
:1000C0000000040511241FBECFEFD8E0DEBFCDBF76
:1000D00011E0A0E0B1E0E2E7FAE002C005900D9285
:1000E000A234B107D9F721E0A2E4B1E001C01D922A
:1000F000A43FB207E1F710E0C2E6D0E004C02197C8
:10010000FE010E943105C136D107C9F70E942903BB
:100110000C9437050C940000AF92BF92CF92DF92FF
:10012000EF92FF920F931F93CF93DF936C017B01AC
:100130008B01040F151FEB015E01AE18BF08C0173D
:10014000D10759F06991D601ED91FC910190F081B0
:10015000E02DC6010995892B79F7C501DF91CF9173
:100160001F910F91FF90EF90DF90CF90BF90AF90D5
:100170000895FC01538D448D252F30E0842F90E0AD
:10018000821B930B541710F0CF9608950197089592
:10019000FC01918D828D981761F0A28DAE0FBF2F5B
:1001A000B11D5D968C91928D9F5F9F73928F90E0B1
:1001B00008958FEF9FEF0895FC01918D828D981720
:1001C00031F0828DE80FF11D858D90E008958FEF5D
:1001D0009FEF0895FC01918D228D892F90E0805C26
:1001E0009F4F821B91098F739927089587E591E0AE
:1001F0000E94EA0021E0892B09F420E0822F089573
:1002000080E090E0892B29F00E94F60081110C9487
:1002100000000895FC01A48DA80FB92FB11DA35AA9
:10022000BF4F2C91848D90E001968F739927848F16
:10023000A689B7892C93A089B1898C918370806439
:100240008C93938D848D981306C00288F389E02DDA
:1002500080818F7D80830895EF92FF920F931F938B
:10026000CF93DF93EC0181E0888F9B8D8C8D981369
:100270001AC0E889F989808185FF15C09FB7F89475
:10028000EE89FF896083E889F989808183708064C1
:1002900080839FBF81E090E0DF91CF911F910F910C
:1002A000FF90EF900895F62E0B8D10E00F5F1F4F1B
:1002B0000F731127E02E8C8D8E110CC00FB607FC2A
:1002C000FACFE889F989808185FFF5CFCE010E94B8
:1002D0000A01F1CFEB8DEC0FFD2FF11DE35AFF4F1B
:1002E000F0829FB7F8940B8FEA89FB898081806246
:1002F000CFCFCF93DF93EC01888D8823B9F0AA8903
:10030000BB89E889F9898C9185FD03C0808186FDD0
:100310000DC00FB607FCF7CF8C9185FFF2CF80811F
:1003200085FFEDCFCE010E940A01E9CFDF91CF9189
:100330000895833081F028F4813099F08230A9F05B
:1003400008958730A9F08830C9F08430B1F48091E5
:1003500080008F7D03C0809180008F778093800024
:10036000089584B58F7784BD089584B58F7DFBCFC4
:100370008091B0008F778093B00008958091B00095
:100380008F7DF9CFCF93DF93282F30E0F901E2552D
:10039000FF4F8491F901E656FF4FD491F901EA57D6
:1003A000FF4FC491CC23A1F081110E949901EC2F41
:1003B000F0E0EE0FFF1FE458FF4FA591B491EC91D0
:1003C000ED2381E090E009F480E0DF91CF91089582
:1003D00080E090E0FACF1F93CF93DF93282F30E097
:1003E000F901E255FF4F8491F901E656FF4FD49190
:1003F000F901EA57FF4FC491CC23A9F0162F8111C0
:100400000E949901EC2FF0E0EE0FFF1FEE58FF4F16
:10041000A591B4918FB7F894EC91111108C0D095C3
:10042000DE23DC938FBFDF91CF911F910895DE2BE8
:10043000F8CFCF93DF9390E0FC01E656FF4F249175
:100440008A579F4FFC0184918823D1F090E0880F58
:10045000991FFC01E859FF4FA591B491FC01EE589A
:10046000FF4FC591D491623071F49FB7F8943C91DD
:10047000822F809583238C93E8812E2B28839FBF26
:10048000DF91CF9108958FB7F894EC912E2B2C9398
:100490008FBFF6CF87E591E00E94EA001816190693
:1004A0004CF487E591E00E94C80080934F0181E001
:1004B000809350010895FC0101900020E9F73197E5
:1004C000AF01481B590BBC0187E591E00C948C00EF
:1004D000CF93DF930E945B02EC0186E191E00E94E2
:1004E0005B028C0F9D1FDF91CF91089589E191E010
:1004F0000E945B0260914F0187E591E00E942C0110
:1005000086E191E00E945B021092500108951F92D3
:100510000F920FB60F9211242F933F934F935F9337
:100520006F937F938F939F93AF93BF93EF93FF93BB
:1005300087E591E00E940A01FF91EF91BF91AF9191
:100540009F918F917F916F915F914F913F912F91EB
:100550000F900FBE0F901F9018951F920F920FB61D
:100560000F9211242F938F939F93EF93FF93E0911A
:100570006701F09168018081E0916D01F0916E0159
:1005800082FD1BC09081809170018F5F8F732091DD
:100590007101821741F0E0917001F0E0E95AFE4FDD
:1005A000958F80937001FF91EF919F918F912F9183
:1005B0000F900FBE0F901F9018958081F4CF1F925F
:1005C0000F920FB60F9211242F933F938F939F9307
:1005D000AF93BF938091470190914801A091490149
:1005E000B0914A013091460123E0230F2D3758F591
:1005F0000196A11DB11D2093460180934701909360
:100600004801A0934901B0934A0180914201909121
:100610004301A0914401B09145010196A11DB11D76
:100620008093420190934301A0934401B09345010C
:10063000BF91AF919F918F913F912F910F900FBEDE
:100640000F901F90189526E8230F0296A11DB11D4B
:10065000D2CF789484B5826084BD84B5816084BD36
:1006600085B5826085BD85B5816085BD80916E0050
:10067000816080936E001092810080918100826081
:1006800080938100809181008160809381008091BE
:1006900080008160809380008091B10084608093AD
:1006A000B1008091B00081608093B00080917A00A9
:1006B000846080937A0080917A00826080937A00CF
:1006C00080917A00816080937A0080917A008068BE
:1006D00080937A001092C10062E082E00E941902C9
:1006E00062E083E00E94190261E08DE00E9419023D
:1006F00061E086E00E94190261E085E00E94190233
:1007000061E084E00E94190260E086E00E94EB0153
:10071000E0916701F091680182E08083E0916301DC
:10072000F09164011082E0916501F09166018FEC17
:10073000808310926F01E0916B01F0916C0186E073
:100740008083E0916901F0916A01808180618083FA
:10075000E0916901F0916A01808188608083E09175
:100760006901F0916A01808180688083E09169016C
:10077000F0916A0180818F7D80838BE291E00E94FD
:10078000680260914D018DE00E94EB01CBE9DFE052
:1007900080E0882E80E0982ECC24C394D12C83E076
:1007A0000E94C2017C0182E00E94C2018C01809102
:1007B000020190910301E816F90699F02FB7F89419
:1007C0008091470190914801A0914901B0914A015F
:1007D0002FBF8093530190935401A0935501B09380
:1007E00056012FB7F8948091470190914801A0914C
:1007F0004901B0914A012FBF4091530150915401DA
:100800006091550170915601841B950BA60BB70B97
:10081000C397A105B10508F44CC080915101909196
:100820005201E816F90609F444C0F0925201E09230
:1008300051018091510190915201892BB1F50E9493
:100840004A0280915001882381F080914F018337C3
:1008500061F40E9476020E944A028091500188232E
:10086000D1F380914F018136B1F7D0924E01C09201
:100870004D0161E084E00E94EB0182E00E94C20130
:100880005C0161E085E00E94EB01CE010197F1F788
:1008900060E085E00E94EB01CE010197F1F7AB2803
:1008A00041F68EE391E00E94680260E084E00E94DD
:1008B000EB0180910001909101010817190799F04F
:1008C0002FB7F8948091470190914801A091490178
:1008D000B0914A012FBF8093530190935401A0938C
:1008E0005501B09356012FB7F8948091470190912C
:1008F0004801A0914901B0914A012FBF4091530195
:10090000509154016091550170915601841B950BD3
:10091000A60BB70BC397A105B10508F45CC0809185
:100920004B0190914C010817190709F454C010931A
:100930004C0100934B0180914B0190914C01892B0C
:1009400009F045C00E944A02809150018823D9F0E5
:1009500080914F018337B9F40E9476020E944A02C7
:10096000809150018823D1F380914F01813609F0A5
:1009700072CF0E944A02809150018823D1F3809166
:100980004F01813659F710924E0110924D0183E0CC
:100990000E94C2015C0160E084E00E94EB0182E001
:1009A0000E94C20161E085E00E94EB01CE01019747
:1009B000F1F760E085E00E94EB01CE010197F1F7CD
:1009C000AB2809F0B8CF80E491E00E94680261E0B2
:1009D00084E00E94EB0160914D018DE00E94EB01EB
:1009E000F0920301E09202011093010100930001D3
:1009F0008114910409F4D3CE0E94F600882309F4EF
:100A0000CECE0E940000CBCEE7E5F1E01382128249
:100A100088EE93E0A0E0B0E084839583A683B7835B
:100A200088E091E09183808385EC90E095878487CE
:100A300084EC90E09787868780EC90E0918B808BA8
:100A400081EC90E0938B828B82EC90E0958B848B91
:100A500086EC90E0978B868B118E128E138E148EFF
:100A60000895EE0FFF1F0590F491E02D0994F8947E
:100A7000FFCF01000100000000002C018C00B90034
:100A80007901EA00C800DC000D0A0054686973208F
:100A90006A75737420696E202E2E2E20003C4172E0
:100AA0006475696E6F2069732072656164793E00B8
:040AB00052004C00A4
:107E0000112484B714BE81FFF0D085E080938100F7
:107E100082E08093C00088E18093C10086E0809377
:107E2000C20080E18093C4008EE0C9D0259A86E02C
:107E300020E33CEF91E0309385002093840096BBD3
:107E4000B09BFECF1D9AA8958150A9F7CC24DD24C4
:107E500088248394B5E0AB2EA1E19A2EF3E0BF2EE7
:107E6000A2D0813461F49FD0082FAFD0023811F036
:107E7000013811F484E001C083E08DD089C08234E0
:107E800011F484E103C0853419F485E0A6D080C0E4
:107E9000853579F488D0E82EFF2485D0082F10E0AE
:107EA000102F00270E291F29000F111F8ED06801E7
:107EB0006FC0863521F484E090D080E0DECF843638
:107EC00009F040C070D06FD0082F6DD080E0C81688
:107ED00080E7D80618F4F601B7BEE895C0E0D1E017
:107EE00062D089930C17E1F7F0E0CF16F0E7DF06D8
:107EF00018F0F601B7BEE89568D007B600FCFDCFD4
:107F0000A601A0E0B1E02C9130E011968C91119780
:107F100090E0982F8827822B932B1296FA010C0160
:107F200087BEE89511244E5F5F4FF1E0A038BF0790
:107F300051F7F601A7BEE89507B600FCFDCF97BE46
:107F4000E89526C08437B1F42ED02DD0F82E2BD052
:107F50003CD0F601EF2C8F010F5F1F4F84911BD097
:107F6000EA94F801C1F70894C11CD11CFA94CF0C13
:107F7000D11C0EC0853739F428D08EE10CD085E9AC
:107F80000AD08FE07ACF813511F488E018D01DD067
:107F900080E101D065CF982F8091C00085FFFCCF94
:107FA0009093C60008958091C00087FFFCCF809118
:107FB000C00084FD01C0A8958091C6000895E0E648
:107FC000F0E098E1908380830895EDDF803219F02E
:107FD00088E0F5DFFFCF84E1DECF1F93182FE3DFCA
:107FE0001150E9F7F2DF1F91089580E0E8DFEE27F6
:047FF000FF270994CA
:027FFE00040479
:00000001FF
